:020000040800F2
:100000000010002079140008511200085312000853
:1000100000000000000000000000000000000000E0
:100020000000000000000000000000005512000861
:1000300000000000000000005712000859120008DC
:10004000C9140008C9140008C9140008C91400081C
:10005000C9140008C9140008C9140008C91400080C
:1000600000000000C9140008C9140008C9140008E1
:10007000C9140008C9140008C9140008C9140008EC
:10008000C91400080000000000000000C9140008A6
:1000900000000000C9140008C9140008C9140008B1
:1000A00000000000C914000800000000C914000886
:1000B0000000000000000000000000000000000040
:1000C00010B5064C2378002B07D1054B002B02D02E
:1000D000044800E000BF0123237010BD040000208D
:1000E0000000000038150008044B10B5002B03D0A9
:1000F0000349044800E000BF10BDC04600000000F6
:10010000080000203815000802B47146490849006B
:10011000095C49008E4402BC7047C0460022430877
:100120008B4274D303098B425FD3030A8B4244D3BF
:10013000030B8B4228D3030C8B420DD3FF22090201
:1001400012BA030C8B4202D31212090265D0030BC0
:100150008B4219D300E0090AC30B8B4201D3CB03B6
:10016000C01A5241830B8B4201D38B03C01A5241F8
:10017000430B8B4201D34B03C01A5241030B8B42FA
:1001800001D30B03C01A5241C30A8B4201D3CB02E5
:10019000C01A5241830A8B4201D38B02C01A5241CA
:1001A000430A8B4201D34B02C01A5241030A8B42CD
:1001B00001D30B02C01A5241CDD2C3098B4201D3E5
:1001C000CB01C01A524183098B4201D38B01C01A63
:1001D000524143098B4201D34B01C01A52410309DA
:1001E0008B4201D30B01C01A5241C3088B4201D389
:1001F000CB00C01A524183088B4201D38B00C01A36
:10020000524143088B4201D34B00C01A5241411A5C
:1002100000D20146524110467047FFE701B5002069
:1002200000F006F802BDC0460029F7D076E7704717
:100230007047C04610B5040000F0E0FBFA218900C9
:10024000FFF76CFF00F066F8012000222100404219
:1002500000F030F8002010BD1023064A10B51168D8
:1002600000200B431360FFF7E5FF00F0D9FF0020EB
:1002700010BDC04600200240024A136801331360DB
:100280007047C04624000020014B18687047C046E4
:100290002400002037B50190FFF7F6FF019C050010
:1002A000631C5A1E9341E418FFF7EEFF401BA04267
:1002B000FAD337BD70B58901002814DA0F23C0B214
:1002C0000340083B114A9B089B009B1803221040E7
:1002D0009040FC321500114085408140DC69AC4300
:1002E0002143D96170BD032583082840A840FC350F
:1002F0002E00074A9B009B18C0228640294081405F
:1003000092009C58B44321439950EBE700ED00E084
:1003100000E100E0094A431E012093420DD8C021AC
:10032000074A08485360036A09061B021B0A0B436D
:10033000036200200723906013607047FFFFFF00F7
:1003400010E000E000ED00E0F0B50B6887B002932C
:1003500000230191029ADA4001D107B0F0BD0122D9
:100360009A4003920399029A0A40009200D188E0D1
:10037000019A1021526816008E43022E0ED10725D5
:100380001D40AD000139A940DC08A4000419276A0A
:100390008F4301990969A9400F43276203245F0035
:1003A000BC40E4430568013E2540AC4603251540AA
:1003B000BD4061460D430560012E0FD80199866846
:1003C000CD682640BD4035438560466803991509D0
:1003D0008E4301210D409D4035434560C56801991C
:1003E0002C408D688021BD4049052C43C4600A42E1
:1003F00047D00121244C0326A5691E400D43A56169
:10040000A4699D080C400594059C0F241F49AD006C
:10041000B6006D18B4409021AF68C905A743002409
:10042000884208D01A490134884204D0194904345A
:10043000884200D1033CB44000993C430E00AC60BC
:10044000154CCD4327683E43D10301D43E002E40D6
:1004500026606768009E3E43910301D43E002E4013
:100460006660A768009E3E43D10201D43E002E4044
:10047000A660E668009F3743920201D42E40370001
:10048000E760013366E7C04600100240000001400B
:10049000000400480008004800040140002A01D080
:1004A000816170478162FCE7F0B5036885B00500A3
:1004B000DB072FD42B689B0700D581E02B681B0737
:1004C00000D5BCE02B685B0700D5DFE02B68DB06BE
:1004D0001AD56A69B54C0423012A00D04BE1616B3F
:1004E00002260B436363636B1A436263FFF7CCFE20
:1004F0000700636B334200D136E1F821626BAB69D0
:100500008A43DB0013436363296A002900D059E161
:10051000002013E00C21A54C62680A40042A06D092
:1005200063680B40082B0BD16368DB0308D5236895
:100530009B03BFD56B68002BBCD1012005B0F0BD7B
:100540006B68012B13D1802322685B021343236065
:10055000FFF79AFE80260700B60223683342A9D12E
:10056000FFF792FEC01B6428F7D90320E6E7002BB3
:1005700016D123688E4A80261340236023688D4A53
:10058000B60213402360FFF77FFE07002368334263
:1005900000D18FE7FFF778FEC01B6428F6D9E4E7A7
:1005A000052B05D180232268DB0213432360CAE7B1
:1005B00023687F4A1340236023687E4A1340C6E7BE
:1005C0000C227A4C6368134206D063681340082BF0
:1005D00010D16368DB030DD423689B0702D5EB6859
:1005E000012BAAD1F82122682B698A43DB0013432F
:1005F000236063E7EA680123002A0FD022680226FD
:1006000013432360FFF740FE070023683342E9D11C
:10061000FFF73AFEC01B0228F7D9A6E72268022698
:100620009A432260FFF730FE07002368334200D16F
:1006300044E7FFF729FEC01B0228F6D995E7EA69CF
:1006400001235A4C002A10D0626A022613436362C7
:10065000FFF71AFE0700636A334200D032E7FFF764
:1006600013FEC01B0228F6D97FE7626A02269A436E
:100670006262FFF709FE0700636A334200D121E797
:10068000FFF702FEC01B0228F6D96EE78022002188
:10069000464C5205E3690091134208D1E3691343C4
:1006A000E361E36913400393039B012300938027D5
:1006B000414E7F0033683B4206D0AB68012B13D11B
:1006C000226A1343236230E033683B433360FFF711
:1006D000DBFD019033683B42EFD1FFF7D5FD019B75
:1006E000C01A6428F6D940E70122002B14D1236AEE
:1006F000022793432362236A033293432362FFF763
:10070000C3FD0600236A3B4225D0FFF7BDFD2B4BFE
:10071000801B9842F6D928E7052B0BD1216A013BB3
:100720000B432362236A1A432262FFF7ADFD0227BF
:1007300006000DE0236A934304222362236A934355
:10074000C0E7FFF7A1FD1D4B801B984200D90CE7C5
:10075000236A3B42F5D0009B012B00D0B6E6E3694B
:10076000174A1340E361B1E6FFF78EFDC01B022874
:1007700000D8BEE6F9E6053203D1626B9A436263A4
:10078000BBE6626B0226134301226363636B9343F0
:100790006363FFF779FD0700636B334200D1B3E673
:1007A000FFF772FDC01B0228F6D9DEE600100240FA
:1007B000FFFFFEFFFFFFFBFF0070004088130000FB
:1007C000FFFFFFEF0C22264C012063681340082B2B
:1007D00000D1B3E62368234A1340236002292FD1B6
:1007E000FFF752FD80260700B6042368334221D16B
:1007F0000F22E36A9343EA6A1343E362696AAB6ACE
:1008000062680B43184980250A40134363608023C4
:1008100022685B0413432360FFF736FD0600AD0436
:1008200023682B4200D073E6FFF72EFD801B0228C1
:10083000F6D99AE6FFF728FDC01B0228D5D994E621
:10084000FFF722FD80250600AD0423682B4200D16E
:100850005EE6FFF719FD801B0228F6D985E6C04643
:1008600000100240FFFFFFFEFFFFC2FF70B5144CF7
:1008700088B010222100684600F04CFE210004AD33
:1008800010221031280000F045FE0C220D4E736836
:100890001A40082A11D10F206A46990C0140545C75
:1008A000F26A0240A95CDB0305D50748FFF736FC76
:1008B000604308B070BD0548FAE70348F9E7C04651
:1008C000501500080010024000127A0000093D0097
:1008D000F7B50122434C060023680F0013408B42FA
:1008E0001CD33268930723D4D30729D40123226869
:1008F0001A40974267D333683B4C5B076AD4FFF7D3
:10090000B5FF6368394A1B061B0FD35CD840384BD0
:1009100018600020FFF78EFC002008E02368934356
:100920000B432360236813409942DAD00120FEBDB7
:10093000F0202D494B688343B06803434B60D3E7F5
:10094000294D72682B68012A1AD19B03EED5032129
:100950006B688B4313436B60FFF796FC73680190E1
:10096000012B15D10C226B681340042BBED0FFF76E
:100970008BFC019BC01A1F4B9842F3D90320D6E78A
:10098000022A02D19B01E2D4D0E79B07DFD4CDE756
:10099000022B12D00C226B681342A7D0FFF774FC15
:1009A000019BC01A134B9842F4D9E7E7FFF76CFCA0
:1009B000019BC01A0F4B9842E0D80C226B68134081
:1009C000082BF3D192E722689A43226022681A42E8
:1009D000ACD190E76368084A1340F2681343636040
:1009E0008DE7C04600200240001002409415000828
:1009F0000000002088130000FFF8FFFF014B18687B
:100A00007047C046000000200122036A70B593437E
:100A10000362036A44688569723295430A68154324
:100A2000022293438A681343114A904205D0114E23
:100A3000B04202D0104EB04213D10826B343CE6864
:100A400033430426B343904205D00A4A904202D071
:100A5000094A904205D1094A8E6922404C693443C3
:100A600014434A68446085614263036270BDC046B6
:100A7000002C01400044014000480140FFFCFFFF02
:100A800070B57325036A164A13400362036A42680D
:100A9000C469AC430D682C43124D2B408D682D0268
:100AA0002B43114DA8420ED1104D1D40CB681B02A7
:100AB0002B430F4D2B400F4D4E6915408A69324331
:100AC00012012A4305E00C4DA842F4D00B4DA84278
:100AD000F1D042604A68C461C263036270BDC0461F
:100AE000FFFEFFFFFFFDFFFF002C0140FFF7FFFFB0
:100AF000FFFBFFFFFFCFFFFF004401400048014024
:100B0000036A124A30B513400362026A104C43680C
:100B1000C56925400C68240225430E4C22408C6890
:100B2000240322430C4CA04205D00C4CA04202D01E
:100B30000B4CA04204D10B4C23404C69A40123432D
:100B400043604B68C5610364026230BDFFEFFFFF85
:100B5000FF8CFFFFFFDFFFFF002C0140004401403E
:100B600000480140FFBFFFFF704700001D4A10B55D
:100B70000368904206D08024E405A04202D01A4CBB
:100B8000A0420CD17024A3434C68234390420FD061
:100B90008024E405A0420BD0134CA04208D0134C93
:100BA000A04205D0124CA04202D0124CA04203D168
:100BB000114C2340CC6823438024A3434C69234336
:100BC00003608B68C3620B688362904205D0084B58
:100BD000984202D0074B984201D10B69036301236D
:100BE000436110BD002C0140000400400020004083
:100BF0000044014000480140FFFCFFFF70B50400C5
:100C00000120002C14D025003D352B78DBB2002BC1
:100C100005D122003C321370200000F051FB02236A
:100C200020682B70211DFFF7A1FF012300202B70EE
:100C300070BD70B504000120002C14D025003D3596
:100C40002B78DBB2002B05D122003C321370200040
:100C5000FFF78AFF022320682B70211DFFF786FF14
:100C6000012300202B7070BD1022036A70B59343DE
:100C70000362026A154D436884692C400D682D0299
:100C80002C432025AA438D682D012A43104DA842EC
:100C90000FD18025AA431500CA6812012A434025B6
:100CA000AA430C4D4E691D408B6933439B002B4377
:100CB00005E0094DA842F4D0084DA842F1D04360A8
:100CC0004B6884618363026270BDC046FF8CFFFF86
:100CD000002C0140FFF3FFFF0044014000480140A9
:100CE000F8B5060002233C360D00317804001800E8
:100CF000012925D0270001213D3731703B700C2A96
:100D00001AD81000FFF700FA071818181D1818183D
:100D10002F181818410029002068FFF775FE0822D7
:100D2000236899690A4304219A619A698A439A61FE
:100D30009A6929690A439A61012300203B70307047
:100D4000F8BD29002068FFF78FFF80222368120179
:100D500099690A439A619A6915490A409A612A6910
:100D600099691202E6E729002068FFF789FE082248
:100D70002368D9690A430421DA61DA698A43DA61AE
:100D8000DA6929690A43DA61D6E729002068FFF7A2
:100D9000B7FE802223681201D9690A43DA61DA6951
:100DA00003490A40DA612A69D9691202EAE7C046B2
:100DB000FFFBFFFF30B58468034D0A431B022C4044
:100DC00013432343836030BDFF00FFFFF8B50500E8
:100DD00002233C352A7804001800012A19D0260085
:100DE000012720683D362F70337083684F4A1340C7
:100DF00083600B68402B00D16FE016D8102B00D118
:100E000087E007D8002B00D17DE00123002033705C
:100E10002870F8BD202B00D181E0302BF5D1702255
:100E2000836893431A00372355E0702B33D01BD8C7
:100E3000502B3BD0602BE8D110244B68CA68016A64
:100E40003B4FA1430162846912033C402243A0242A
:100E5000016A82617022A1431B010B430362836814
:100E600093431A00672336E08022520193420DD04B
:100E7000802292019342C8D1CB684A688968FFF703
:100E800099FF80232268DB0191680CE007228368C8
:100E900093438360B9E7CB684A688968FFF78AFFA4
:100EA0007721226893680B439360AEE74A68CB686A
:100EB000016A046A1B01BC43F02704628469BC43D5
:100EC00023430A24A1430A43836102627022836898
:100ED00093431A0057231343DBE74A68CB68016A40
:100EE000046A1B01BC43F02704628469BC432343AA
:100EF0000A24A1430A4383610262702283689343F8
:100F00001A004723E7E77022836893431A000723F8
:100F1000E1E77022836893431A001723DBE770220E
:100F2000836893431A002723D5E7C0468800FFFF54
:100F3000FF0FFFFF10B501248C408A40036AA343D2
:100F40000362036A1A43026210BD000010B5040078
:100F500001220068FFF7EEFF23680A4A934205D09A
:100F6000094A934202D0094A934204D18022596C23
:100F700012020A435A640122196800200A431A60C7
:100F800010BDC046002C0140004401400048014013
:100F900010B504248C408A40036AA3430362036AA9
:100FA0001A43026210BD10B5040004220068FFF766
:100FB000EFFF802223681202596C00200A435A6412
:100FC000012219680A431A6010BD30B504003C3490
:100FD000227803000220012A17D01D001B683D352E
:100FE00028705A686E3082435A605A6808684968A7
:100FF000024380205A609A6882439A609A6800206F
:101000000A439A6001232B70207030BD30B5040074
:101010003C34237802000220012B24D015003D35FA
:101020002870114BC86812680340886803430F4852
:101030000340486803430E480340086803430D48D3
:101040000340086903430C48034048698969034326
:101050000A4803400A480B4303400B4353640020F3
:1010600001232B70207030BDFFFCFFFFFFFBFFFF53
:10107000FFF7FFFFFFEFFFFFFFDFFFFFFFBFFFFFF8
:10108000FF7FFFFFF0B589B01422002103A800F014
:101090004AFA8020214BC0025969214F014359610E
:1010A0005A690025024080200092009A5969800206
:1010B0000143596180215A69C90302400192019A92
:1010C0005A6938000A435A615B6901220B40029356
:1010D000C021029BFFF7E2F90223124E039303A9FA
:1010E00001333000012404930595FFF72DF9C02347
:1010F00003A938000393049405950695FFF724F996
:10110000C0230393AE3B049303A90F3B3000059427
:1011100006930794FFF718F909B0F0BD00100240DC
:10112000001400480004004870B5102690B030222A
:10113000002104A800F0F7F932000021684600F011
:10114000F2F9A023022401259B0304A80E93049422
:10115000079508960C94FFF7A7F90723009300233F
:1011600029006846019402930393FFF7B1FB10B086
:1011700070BD0000F0B5264C8BB021000C2201A8F8
:1011800000F0C8F9210004AE0C310C22300000F050
:10119000C1F9210007AF0C221831380000F0BAF96C
:1011A000FFF75AF8FFF7C0FFFFF76CFF00F0DEF81B
:1011B000184C00212000FFF7C9FE00212000FFF796
:1011C000F2FE04212000FFF7C1FE04212000FFF7FA
:1011D000EAFE08212000FFF7B9FE08212000FFF7F2
:1011E000E2FE00230C4D2B802B88052BF9D8694695
:1011F000FA205B0004312268C95AC0005163F15AD9
:10120000FB5A9163D363FFF745F82B880133EAE774
:101210007015000828000020200000207047000002
:1012200001200A4B82B099690143996180219A6932
:10123000490502400092009ADA690A43DA61DB69E3
:101240000B400193019B02B07047C0460010024062
:101250007047FEE77047704710B5FFF70DF810BDF7
:101260000121114B11481A680A431A605A6802405A
:101270005A601A680E4802401A601A680D48024007
:101280001A605A680C4802400F205A60DA6A82439A
:10129000DA621A6B094802401A635A6B8A435A632E
:1012A00000229A607047C046001002400CB8FF0848
:1012B000FFFFF6FEFFFFFBFFFFFFC0FFECFEFFFF9F
:1012C000084B026882B09A4209D18020064A000188
:1012D000916901439161936903400193019B02B0BD
:1012E0007047C046002C01400010024030B5040099
:1012F00089B01422002103A800F015F9184B2268C8
:101300009A422BD18020174BC00259690224014315
:10131000596180215A69890202400192019A5A69F1
:1013200003250A435A615B690F480B400293029BF5
:10133000E02303A91B020393049406950794FFF787
:1013400003F8E0239020DB000393002303A9C005EA
:101350000494059306950794FEF7F6FF09B030BD97
:10136000002C0140001002400004004830B595B048
:101370001022002102A800F0D6F8082200216846B9
:1013800000F0D1F81C22002106A800F0CCF81C22A5
:1013900000210DA800F0C7F8344C354B354D2360C3
:1013A0000123636000232000A360E5602361636183
:1013B000A361FFF723FC002801D0FFF72FFF802354
:1013C00002A95B0120000293FFF700FD002801D075
:1013D000FFF724FF2000FFF72CFC002801D0FFF7C7
:1013E0001DFF00236946200000930193FFF7EDFDE8
:1013F000002801D0FFF712FF0022602306A9200079
:1014000006930795089209920A920B920C92FFF7A5
:1014100067FC002801D0FFF701FF042206A9200085
:10142000FFF75EFC002801D0FFF7F8FE082206A9AE
:101430002000FFF755FC002801D0FFF7EFFE8022C7
:10144000002392010DA920000D930E930F9310938A
:10145000119312921393FFF7D9FD002801D0FFF7E3
:10146000DDFE2000FFF742FF15B030BD2800002050
:10147000002C0140FFFF00000D4885460D480E4935
:101480000E4A002302E0D458C4500433C4188C42DE
:10149000F9D30B4A0B4C002301E013600432A24243
:1014A000FBD3FFF7DDFE00F011F8FFF763FEFEE768
:1014B000001000200000002004000020AC150008EF
:1014C0000400002068000020FEE7000070B5002640
:1014D0000C4D0D4C641BA410A64209D1002600F04F
:1014E0002BF80A4D0A4C641BA410A64205D170BD0E
:1014F000B300EB5898470136EEE7B300EB58984736
:101500000136F2E7A4150008A4150008A415000888
:10151000A8150008002310B59A4200D110BDCC5C7C
:10152000C4540133F8E703008218934200D1704796
:1015300019700133F9E70000F8B5C046F8BC08BCE3
:101540009E467047F8B5C046F8BC08BC9E4670473A
:1015500002030405060708090A0B0C0D0E0F1010F4
:101560000102030405060708090A0B0C0D0E0F10F3
:1015700000C0FFFF00C0004000000040000000402D
:1015800000C0FFFF00C0004000C00040000000405D
:1015900000C0FFFF00000000000000000102030483
:0415A0000607080929
:0415A400E900000852
:0415A800C100000876
:0415AC0000127A00AF
:040000050800147962
:00000001FF
